{
  "contractName": "NFT",
  "abi": [
    {
      "inputs": [
        {
          "internalType": "string",
          "name": "_text",
          "type": "string"
        }
      ],
      "stateMutability": "nonpayable",
      "type": "constructor"
    },
    {
      "inputs": [],
      "name": "creator",
      "outputs": [
        {
          "internalType": "address payable",
          "name": "",
          "type": "address"
        }
      ],
      "stateMutability": "view",
      "type": "function"
    },
    {
      "inputs": [],
      "name": "lastSaleAmount",
      "outputs": [
        {
          "internalType": "uint256",
          "name": "",
          "type": "uint256"
        }
      ],
      "stateMutability": "view",
      "type": "function"
    },
    {
      "inputs": [],
      "name": "owner",
      "outputs": [
        {
          "internalType": "address",
          "name": "",
          "type": "address"
        }
      ],
      "stateMutability": "view",
      "type": "function"
    },
    {
      "inputs": [],
      "name": "text",
      "outputs": [
        {
          "internalType": "string",
          "name": "",
          "type": "string"
        }
      ],
      "stateMutability": "view",
      "type": "function"
    },
    {
      "inputs": [],
      "name": "buy",
      "outputs": [],
      "stateMutability": "payable",
      "type": "function"
    },
    {
      "inputs": [
        {
          "internalType": "string",
          "name": "_text",
          "type": "string"
        }
      ],
      "name": "setText",
      "outputs": [],
      "stateMutability": "nonpayable",
      "type": "function"
    },
    {
      "inputs": [],
      "name": "claim",
      "outputs": [],
      "stateMutability": "nonpayable",
      "type": "function"
    },
    {
      "inputs": [],
      "name": "finalize",
      "outputs": [],
      "stateMutability": "nonpayable",
      "type": "function"
    }
  ],
  "bytecode": "0x60806040523480156200001157600080fd5b5060405162000ede38038062000ede833981810160405281019062000037919062000326565b80600090805190602001906200004f929190620000d9565b5033600260006101000a81548173ffffffffffffffffffffffffffffffffffffffff021916908373ffffffffffffffffffffffffffffffffffffffff16021790555033600160006101000a81548173ffffffffffffffffffffffffffffffffffffffff021916908373ffffffffffffffffffffffffffffffffffffffff16021790555050620003dc565b828054620000e790620003a6565b90600052602060002090601f0160209004810192826200010b576000855562000157565b82601f106200012657805160ff191683800117855562000157565b8280016001018555821562000157579182015b828111156200015657825182559160200191906001019062000139565b5b5090506200016691906200016a565b5090565b5b80821115620001855760008160009055506001016200016b565b5090565b6000604051905090565b600080fd5b600080fd5b600080fd5b600080fd5b6000601f19601f8301169050919050565b7f4e487b7100000000000000000000000000000000000000000000000000000000600052604160045260246000fd5b620001f282620001a7565b810181811067ffffffffffffffff82111715620002145762000213620001b8565b5b80604052505050565b60006200022962000189565b9050620002378282620001e7565b919050565b600067ffffffffffffffff8211156200025a5762000259620001b8565b5b6200026582620001a7565b9050602081019050919050565b60005b838110156200029257808201518184015260208101905062000275565b83811115620002a2576000848401525b50505050565b6000620002bf620002b9846200023c565b6200021d565b905082815260208101848484011115620002de57620002dd620001a2565b5b620002eb84828562000272565b509392505050565b600082601f8301126200030b576200030a6200019d565b5b81516200031d848260208601620002a8565b91505092915050565b6000602082840312156200033f576200033e62000193565b5b600082015167ffffffffffffffff81111562000360576200035f62000198565b5b6200036e84828501620002f3565b91505092915050565b7f4e487b7100000000000000000000000000000000000000000000000000000000600052602260045260246000fd5b60006002820490506001821680620003bf57607f821691505b60208210811415620003d657620003d562000377565b5b50919050565b610af280620003ec6000396000f3fe60806040526004361061007b5760003560e01c80635d3a1f9d1161004e5780635d3a1f9d14610104578063604444d51461012d5780638da5cb5b14610158578063a6f2ae3a146101835761007b565b806302d05d3f146100805780631f1bd692146100ab5780634bb278f3146100d65780634e71d92d146100ed575b600080fd5b34801561008c57600080fd5b5061009561018d565b6040516100a29190610619565b60405180910390f35b3480156100b757600080fd5b506100c06101b3565b6040516100cd91906106cd565b60405180910390f35b3480156100e257600080fd5b506100eb610241565b005b3480156100f957600080fd5b506101026102d6565b005b34801561011057600080fd5b5061012b60048036038101906101269190610838565b6103d1565b005b34801561013957600080fd5b5061014261047b565b60405161014f919061089a565b60405180910390f35b34801561016457600080fd5b5061016d610481565b60405161017a91906108d6565b60405180910390f35b61018b6104a7565b005b600260009054906101000a900473ffffffffffffffffffffffffffffffffffffffff1681565b600080546101c090610920565b80601f01602080910402602001604051908101604052809291908181526020018280546101ec90610920565b80156102395780601f1061020e57610100808354040283529160200191610239565b820191906000526020600020905b81548152906001019060200180831161021c57829003601f168201915b505050505081565b600260009054906101000a900473ffffffffffffffffffffffffffffffffffffffff1673ffffffffffffffffffffffffffffffffffffffff163373ffffffffffffffffffffffffffffffffffffffff161461029b57600080fd5b600260009054906101000a900473ffffffffffffffffffffffffffffffffffffffff1673ffffffffffffffffffffffffffffffffffffffff16ff5b600260009054906101000a900473ffffffffffffffffffffffffffffffffffffffff1673ffffffffffffffffffffffffffffffffffffffff163373ffffffffffffffffffffffffffffffffffffffff1614610366576040517f08c379a000000000000000000000000000000000000000000000000000000000815260040161035d9061099e565b60405180910390fd5b600260009054906101000a900473ffffffffffffffffffffffffffffffffffffffff1673ffffffffffffffffffffffffffffffffffffffff166108fc479081150290604051600060405180830381858888f193505050501580156103ce573d6000803e3d6000fd5b50565b600160009054906101000a900473ffffffffffffffffffffffffffffffffffffffff1673ffffffffffffffffffffffffffffffffffffffff163373ffffffffffffffffffffffffffffffffffffffff1614610461576040517f08c379a000000000000000000000000000000000000000000000000000000000815260040161045890610a0a565b60405180910390fd5b8060009080519060200190610477929190610535565b5050565b60035481565b600160009054906101000a900473ffffffffffffffffffffffffffffffffffffffff1681565b60035434116104eb576040517f08c379a00000000000000000000000000000000000000000000000000000000081526004016104e290610a9c565b60405180910390fd5b33600160006101000a81548173ffffffffffffffffffffffffffffffffffffffff021916908373ffffffffffffffffffffffffffffffffffffffff16021790555034600381905550565b82805461054190610920565b90600052602060002090601f01602090048101928261056357600085556105aa565b82601f1061057c57805160ff19168380011785556105aa565b828001600101855582156105aa579182015b828111156105a957825182559160200191906001019061058e565b5b5090506105b791906105bb565b5090565b5b808211156105d45760008160009055506001016105bc565b5090565b600073ffffffffffffffffffffffffffffffffffffffff82169050919050565b6000610603826105d8565b9050919050565b610613816105f8565b82525050565b600060208201905061062e600083018461060a565b92915050565b600081519050919050565b600082825260208201905092915050565b60005b8381101561066e578082015181840152602081019050610653565b8381111561067d576000848401525b50505050565b6000601f19601f8301169050919050565b600061069f82610634565b6106a9818561063f565b93506106b9818560208601610650565b6106c281610683565b840191505092915050565b600060208201905081810360008301526106e78184610694565b905092915050565b6000604051905090565b600080fd5b600080fd5b600080fd5b600080fd5b7f4e487b7100000000000000000000000000000000000000000000000000000000600052604160045260246000fd5b61074582610683565b810181811067ffffffffffffffff821117156107645761076361070d565b5b80604052505050565b60006107776106ef565b9050610783828261073c565b919050565b600067ffffffffffffffff8211156107a3576107a261070d565b5b6107ac82610683565b9050602081019050919050565b82818337600083830152505050565b60006107db6107d684610788565b61076d565b9050828152602081018484840111156107f7576107f6610708565b5b6108028482856107b9565b509392505050565b600082601f83011261081f5761081e610703565b5b813561082f8482602086016107c8565b91505092915050565b60006020828403121561084e5761084d6106f9565b5b600082013567ffffffffffffffff81111561086c5761086b6106fe565b5b6108788482850161080a565b91505092915050565b6000819050919050565b61089481610881565b82525050565b60006020820190506108af600083018461088b565b92915050565b60006108c0826105d8565b9050919050565b6108d0816108b5565b82525050565b60006020820190506108eb60008301846108c7565b92915050565b7f4e487b7100000000000000000000000000000000000000000000000000000000600052602260045260246000fd5b6000600282049050600182168061093857607f821691505b6020821081141561094c5761094b6108f1565b5b50919050565b7f6f6e6c792063726561746f722063616e20636c61696d2066756e647300000000600082015250565b6000610988601c8361063f565b915061099382610952565b602082019050919050565b600060208201905081810360008301526109b78161097b565b9050919050565b7f796f7520617265206e6f7420746865206f776e65720000000000000000000000600082015250565b60006109f460158361063f565b91506109ff826109be565b602082019050919050565b60006020820190508181036000830152610a23816109e7565b9050919050565b7f74686520616d6f756e74206f66206d6f6e6579206d757374206265206772656160008201527f746572207468616e207468652070726576696f732073616c6500000000000000602082015250565b6000610a8660398361063f565b9150610a9182610a2a565b604082019050919050565b60006020820190508181036000830152610ab581610a79565b905091905056fea2646970667358221220091ee70ba1151eec28d3adaff18ad211c0081e0382c5aa6604600cae7ed1d43464736f6c634300080a0033",
  "immutableReferences": {},
  "source": "// SPDX-License-Identifier: MIT\npragma solidity ^0.8.10;\n\ncontract NFT {\n    string public text;\n    address public owner;\n    address payable public creator;\n    uint256 public lastSaleAmount;\n\n    constructor(string memory _text) {\n        text = _text;\n        creator = payable(msg.sender);\n        owner = msg.sender;\n    }\n\n    function buy() public payable {\n        require(\n            msg.value > lastSaleAmount,\n            \"the amount of money must be greater than the previos sale\"\n        );\n\n        owner = msg.sender;\n        lastSaleAmount = msg.value;\n    }\n\n    function setText(string memory _text) public {\n        require(msg.sender == owner, \"you are not the owner\");\n        text = _text;\n    }\n\n    function claim() public {\n        require(msg.sender == creator, \"only creator can claim funds\");\n\n        creator.transfer(address(this).balance);\n    }\n\n    function finalize() public onlyCreator {\n        selfdestruct(creator);\n    }\n\n    modifier onlyCreator() {\n        require(msg.sender == creator);\n        _;\n    }\n}\n",
  "sourcePath": "/home/stan/Projects/blockchain/nft-tut/contracts/NFT.sol",
  "compiler": {
    "name": "solc",
    "version": "0.8.10+commit.fc410830.Emscripten.clang"
  },
  "schemaVersion": "3.4.4",
  "updatedAt": "2021-12-23T09:21:07.699Z",
  "devdoc": {
    "kind": "dev",
    "methods": {},
    "version": 1
  },
  "userdoc": {
    "kind": "user",
    "methods": {},
    "version": 1
  }
}